:020000040000FA
:10000000780400206D0200007102000073020000FD
:100010007502000077020000790200000000000075
:100020000000000000000000000000007B02000053
:100030007D020000000000007F020000AD0600000D
:1000400083020000C5030000830200008302000059
:10005000830200008302000083020000830200008C
:10006000830200008302000083020000830200007C
:10007000830200008302000083020000830200006C
:10008000830200008302000083020000830200005C
:10009000830200008302000083020000830200004C
:1000A000830200008302000083020000830200003C
:1000B0008302000083020000FD03000083020000B1
:1000C000830200008302000083020000830200001C
:1000D000830200008302000083020000830200000C
:1000E00083020000830200008302000083020000FC
:1000F00083020000830200008302000083020000EC
:1001000083020000830200008302000083020000DB
:1001100083020000830200008302000083020000CB
:1001200083020000830200008302000083020000BB
:1001300083020000830200008302000083020000AB
:1001400000000000000000000000000000000000AF
:10015000830200008302000083020000830200008B
:10016000000000000000000000000000000000008F
:10017000000000000000000000000000000000007F
:10018000000000000000000000000000000000006F
:10019000000000000000000000000000000000005F
:1001A000000000000000000000000000000000004F
:1001B000830200008302000083020000830200002B
:1001C000830200008302000083020000830200001B
:1001D000830200008302000083020000830200000B
:1001E00083020000830200008302000083020000FB
:1001F00083020000830200008302000083020000EB
:10020000830200008302000083020000000000005F
:1002100083020000830200008302000083020000CA
:1002200083020000830200008302000083020000BA
:1002300083020000830200008302000083020000AA
:10024000830200008302000083020000830200009A
:10025000830200008302000083020000830200008A
:1002600083020000830200008302000000F00AB84D
:10027000FEE7FEE7FEE7FEE7FEE7FEE7FEE7FEE756
:10028000FEE7FEE700F002F800F03AF80AA090E876
:10029000000C82448344AAF10107DA4501D100F041
:1002A0002FF8AFF2090EBAE80F0013F0010F18BFD4
:1002B000FB1A43F001031847CC050000EC050000D1
:1002C000103A24BF78C878C1FAD8520724BF30C882
:1002D00030C144BF04680C60704700000023002454
:1002E00000250026103A28BF78C1FBD8520728BF46
:1002F00030C148BF0B6070471FB51FBD10B510BDA2
:1003000000F029F81146FFF7F7FF00F075FA00F04A
:1003100047F803B4FFF7F2FF03BC00F04BF800000E
:1003200072B6704762B67047EFF3108072B67047CE
:1003300080F31088704730BF704702480249014A75
:10034000024B7047780000207804002078000020DD
:10035000704770477047754600F028F8AE460500B4
:100360006946534620F00700854618B020B5FFF7D0
:10037000E4FFBDE820404FF000064FF000074FF0CB
:1003800000084FF0000B21F00701AC46ACE8C009B3
:10039000ACE8C009ACE8C009ACE8C0098D467047BC
:1003A0000446AFF300802046FFF7B3FF00487047D4
:1003B0001800002001491820ABBEFEE7260002000D
:1003C00070470000022009490860002008490860C1
:1003D0000848006810F0020F03D0002006490860AA
:1003E00002E0012004490860704700001C540040EE
:1003F00008000020FC5300400C000020102006499B
:1004000008600648006818B100200449086002E04E
:1004100001200249086070471C5402400C00002073
:1004200008B52F48006840F002002E49C1F80801C5
:100430002B48006800902C48006840F002002A49D0
:1004400008602A48006820F002002849086028480F
:10045000006820F00200264908602648006840F045
:100460000200244908602448006820F00F00224957
:1004700008604FF00000A1F1040108601F48006807
:1004800040F002001D4908601D48006820F002008D
:100490001B49086001F10400006840F0020001F10E
:1004A000040108604FF00200164908601648006811
:1004B00040F00200144908601448016800686FF4B5
:1004C0007F2200EA020041EA0000104908604FF074
:1004D000E020D0F8000140F002000D49086008BD9E
:1004E00008E10F4000E00F40245500400054004058
:1004F000205400401C5500402C5500401055004031
:10050000045400401C5400401054004000E400E03B
:1005100000E100E008B53948006840F020003849A3
:10052000C1F808013548006800903648364908602F
:1005300001F10400006840F01E0001F104010860B0
:100540003248006820F01000304908600846006812
:1005500040F00E0008602E48006820F010002C4982
:1005600008602C48006840F01E002A4908602A48AC
:10057000006820F47020284908604FF00000A1F1C5
:10058000040108602548006840F010002349086015
:100590002348006820F010002149086001F10400A0
:1005A000006820F0100001F10401086001F104006E
:1005B000006820F0100001F1040108604FF0100005
:1005C000184908601848006840F010001649086093
:1005D000164800681549096821F47F0141F420019B
:1005E00040EA0100114908604FF0E020D0F8000116
:1005F00040F080400E49086008BD000008E10F404F
:1006000000E00F404B434F4C205502400054024045
:10061000205402401C5502402C5502401055024007
:10062000045402401C540240105402401CE400E0F8
:1006300000E100E00020194908701948006840F006
:100640000800174908601748006820F00F00154996
:100650000860081D00686FF30F00091D086012484C
:10066000006840F00F00104908600F482030006813
:1006700020F00F000C49203108600A48203800683B
:1006800040F00F0007492039086006480C38006820
:1006900040F00F0003490C3908607047100000203B
:1006A00008E60F40287500400074004000B532484D
:1006B0000068401C3049086008460068322811D99B
:1006C0002E48006880F002002D49C1F8FC0308465E
:1006D000D0F8FC0320F00D00284908604FF000001E
:1006E000254908602748006848B32748006841F258
:1006F000707188420FD22548007800EB40002449F1
:1007000001EB80000079214908701F480068401CF7
:100710001D4908602FE01C480068A0F5B8517039E9
:1007200003D10A2000F04EF825E0042013490860A8
:100730001348D0F8FC0320F00B0008601BE01248BF
:10074000006878B11148007800EB4000104901EBD7
:100750008000007A0D4908700B480068401E0A4965
:10076000086008E00820054908600548D0F8FC0347
:1007700020F00700086000BD08000020FC53024084
:10078000005002400C000020140000201000002047
:100790005408000000214FF0E0221161411E516118
:1007A000002191610649096821F07F4141F08041B3
:1007B000034A116007214FF0E022116170470000E9
:1007C00020ED00E030B5002113E000220DE0002311
:1007D00007E0002401E0651CECB23C2CFBDB5D1C57
:1007E000EBB2FA2BF5DB551CEAB2FA2AEFDB4D1C13
:1007F000E9B28142E9D330BD0020104908601049B8
:100800000860FFF70DFEFFF785FEFFF713FF49F6BF
:100810004040FFF7BFFFFFF785FD0820094908604A
:100820000AE00948007800EB4000084951F8200030
:100830000749C863FFF77FFDF3E7000008000020C9
:100840000C000020FC53024010000020540800005F
:10085000007000400C0000000100000003000000D8
:10086000060000000200000000000000030000007D
:100870000300000001000000010000000000000073
:1008800002000000A4080000000000201800000082
:10089000C0020000BC080000180000206004000036
:1008A000DC0200000000000000000000000000006A
:0C08B0000000000000000000000000003C
:040000050000026D88
:00000001FF
