:020000040000FA
:10000000780400206D0200007102000073020000FD
:100010007502000077020000790200000000000075
:100020000000000000000000000000007B02000053
:100030007D020000000000007F020000B106000009
:1000400083020000C5030000830200008302000059
:10005000830200008302000083020000830200008C
:10006000830200008302000083020000830200007C
:10007000830200008302000083020000830200006C
:10008000830200008302000083020000830200005C
:10009000830200008302000083020000830200004C
:1000A000830200008302000083020000830200003C
:1000B0008302000083020000FD03000083020000B1
:1000C000830200008302000083020000830200001C
:1000D000830200008302000083020000830200000C
:1000E00083020000830200008302000083020000FC
:1000F00083020000830200008302000083020000EC
:1001000083020000830200008302000083020000DB
:1001100083020000830200008302000083020000CB
:1001200083020000830200008302000083020000BB
:1001300083020000830200008302000083020000AB
:1001400000000000000000000000000000000000AF
:10015000830200008302000083020000830200008B
:10016000000000000000000000000000000000008F
:10017000000000000000000000000000000000007F
:10018000000000000000000000000000000000006F
:10019000000000000000000000000000000000005F
:1001A000000000000000000000000000000000004F
:1001B000830200008302000083020000830200002B
:1001C000830200008302000083020000830200001B
:1001D000830200008302000083020000830200000B
:1001E00083020000830200008302000083020000FB
:1001F00083020000830200008302000083020000EB
:10020000830200008302000083020000000000005F
:1002100083020000830200008302000083020000CA
:1002200083020000830200008302000083020000BA
:1002300083020000830200008302000083020000AA
:10024000830200008302000083020000830200009A
:10025000830200008302000083020000830200008A
:1002600083020000830200008302000000F00AB84D
:10027000FEE7FEE7FEE7FEE7FEE7FEE7FEE7FEE756
:10028000FEE7FEE700F002F800F03AF80AA090E876
:10029000000C82448344AAF10107DA4501D100F041
:1002A0002FF8AFF2090EBAE80F0013F0010F18BFD4
:1002B000FB1A43F001031847EC0500000C06000090
:1002C000103A24BF78C878C1FAD8520724BF30C882
:1002D00030C144BF04680C60704700000023002454
:1002E00000250026103A28BF78C1FBD8520728BF46
:1002F00030C148BF0B6070471FB51FBD10B510BDA2
:1003000000F029F81146FFF7F7FF00F093FA00F02C
:1003100047F803B4FFF7F2FF03BC00F04BF800000E
:1003200072B6704762B67047EFF3108072B67047CE
:1003300080F31088704730BF704702480249014A75
:10034000024B7047780000207804002078000020DD
:10035000704770477047754600F028F8AE460500B4
:100360006946534620F00700854618B020B5FFF7D0
:10037000E4FFBDE820404FF000064FF000074FF0CB
:1003800000084FF0000B21F00701AC46ACE8C009B3
:10039000ACE8C009ACE8C009ACE8C0098D467047BC
:1003A0000446AFF300802046FFF7B3FF00487047D4
:1003B0001800002001491820ABBEFEE7260002000D
:1003C00070470000012009490860002008490860C2
:1003D0000848006810F0010F03D0012006490860AA
:1003E00002E0022004490860704700001C540040ED
:1003F00008000020FC5300400C000020102007499A
:10040000086007480068012803D1022004490860F9
:1004100002E0012002490860704700001C540240BD
:100420000C00002008B52F48006840F002002E495B
:10043000C1F808012B48006800902C48006840F083
:1004400001002A4908602A48006820F00100284974
:1004500008602848006820F0010026490860264806
:10046000006840F00100244908602448006820F03A
:100470000F00224908604FF00000A1F1040108605C
:100480001F48006840F001001D4908601D480068D1
:1004900020F001001B49086001F10400006840F0F1
:1004A000010001F1040108604FF0010016490860E5
:1004B0001648006840F001001449086014480168BB
:1004C00000686FF47F2200EA020041EA0000104950
:1004D00008604FF0E020D0F8000140F002000D4924
:1004E000086008BD08E10F4000E00F4024550040BF
:1004F00000540040205400401C5500402C55004042
:1005000010550040045400401C540040105400405A
:1005100000E400E000E100E008B53948006840F080
:1005200020003849C1F80801354800680090364875
:100530003649086001F10400006840F01E0001F136
:10054000040108603248006820F01000304908605B
:100550000846006840F00E0008602E48006820F051
:1005600010002C4908602C48006840F01E002A4901
:1005700008602A48006820F47020284908604FF07D
:100580000000A1F1040108602548006840F0100057
:10059000234908602348006820F0100021490860C2
:1005A00001F10400006820F0100001F1040108606E
:1005B00001F10400006820F0100001F1040108605E
:1005C0004FF01000184908601848006840F010000B
:1005D00016490860164800681549096821F47F012A
:1005E00041F4200140EA0100114908604FF0E02089
:1005F000D0F8000140F080400E49086008BD0000BE
:1006000008E10F4000E00F404B434F4C20550240A3
:1006100000540240205402401C5502402C55024018
:1006200010550240045402401C5402401054024031
:100630001CE400E000E100E01948006840F0080018
:10064000174908600020174908701748006820F013
:100650000F0015490860081D00686FF30F00091DA1
:1006600008601248006840F00F00104908600F4809
:100670002030006820F00F000C49203108600A4843
:100680002038006840F00F0007492039086006480C
:100690000C38006840F00F0003490C3908607047BF
:1006A00008E60F401000002028750040007400404C
:1006B0004C48006802284AD14B480068401C4A490F
:1006C000086008460068322811D94848006880F060
:1006D00002004749C1F8FC030846D0F8FC0320F0AB
:1006E0000D00424908604FF000003F490860414852
:1006F0000068B0F57A7F18D23F48007800EB4000E0
:100700003E4901EB800000793B49087008460078BB
:1007100000EB4000394951F820003949C863354899
:100720000068401C334908605BE032480068B0F55F
:100730007A7F56D300202C49086004202B4908609A
:100740002B48D0F8FC0320F00B00086049E0254856
:100750000068012845D124480068401C22490860EF
:1007600008460068322811D92048006880F002004D
:100770001F49C1F8FC030846D0F8FC0320F00D0027
:100780001A4908604FF000001749086019480068CE
:10079000C0B11948007800EB4000184901EB800017
:1007A000007A154908700846007800EB40001349AC
:1007B00051F820001249C8630E480068401E0D49D8
:1007C00008600EE00B48006858B900200649086030
:1007D0000820064908600648D0F8FC0320F007000E
:1007E000086070470C00002008000020FC53024005
:1007F0000050024014000020100000207408000087
:100800000070004000214FF0E0221161411E516153
:10081000002191610649096821F07F4141F0804142
:10082000034A116007214FF0E02211617047000078
:1008300020ED00E000200B4908600B490860FFF73D
:10084000F1FDFFF769FEFFF7F7FE0848FFF7DAFF53
:10085000FFF768FD08200649086001E0FFF76BFD1F
:10086000FCE70000080000200C00002000710200DE
:10087000FC5302400C0000000100000003000000D7
:10088000060000000200000000000000030000005D
:100890000300000001000000010000000000000053
:1008A00002000000C4080000000000201800000042
:1008B000C0020000DC0800001800002060040000F6
:1008C000DC0200000000000000000000000000004A
:0C08D0000000000000000000000000001C
:040000050000026D88
:00000001FF
